{
  "_format": "hh-sol-artifact-1",
  "contractName": "StkEth",
  "sourceName": "contracts/token/StkEth.sol",
  "abi": [
    {
      "inputs": [
        {
          "internalType": "address",
          "name": "_core",
          "type": "address"
        }
      ],
      "stateMutability": "nonpayable",
      "type": "constructor"
    },
    {
      "anonymous": false,
      "inputs": [
        {
          "indexed": true,
          "internalType": "address",
          "name": "owner",
          "type": "address"
        },
        {
          "indexed": true,
          "internalType": "address",
          "name": "spender",
          "type": "address"
        },
        {
          "indexed": false,
          "internalType": "uint256",
          "name": "value",
          "type": "uint256"
        }
      ],
      "name": "Approval",
      "type": "event"
    },
    {
      "anonymous": false,
      "inputs": [
        {
          "indexed": false,
          "internalType": "address",
          "name": "account",
          "type": "address"
        }
      ],
      "name": "Paused",
      "type": "event"
    },
    {
      "anonymous": false,
      "inputs": [
        {
          "indexed": false,
          "internalType": "address",
          "name": "_core",
          "type": "address"
        }
      ],
      "name": "SetCore",
      "type": "event"
    },
    {
      "anonymous": false,
      "inputs": [
        {
          "indexed": true,
          "internalType": "address",
          "name": "from",
          "type": "address"
        },
        {
          "indexed": true,
          "internalType": "address",
          "name": "to",
          "type": "address"
        },
        {
          "indexed": false,
          "internalType": "uint256",
          "name": "value",
          "type": "uint256"
        }
      ],
      "name": "Transfer",
      "type": "event"
    },
    {
      "anonymous": false,
      "inputs": [
        {
          "indexed": false,
          "internalType": "address",
          "name": "account",
          "type": "address"
        }
      ],
      "name": "Unpaused",
      "type": "event"
    },
    {
      "anonymous": false,
      "inputs": [
        {
          "indexed": false,
          "internalType": "address",
          "name": "user",
          "type": "address"
        },
        {
          "indexed": false,
          "internalType": "uint256",
          "name": "amount",
          "type": "uint256"
        }
      ],
      "name": "burnToken",
      "type": "event"
    },
    {
      "inputs": [],
      "name": "DOMAIN_SEPARATOR",
      "outputs": [
        {
          "internalType": "bytes32",
          "name": "",
          "type": "bytes32"
        }
      ],
      "stateMutability": "view",
      "type": "function"
    },
    {
      "inputs": [],
      "name": "PERMIT_TYPEHASH",
      "outputs": [
        {
          "internalType": "bytes32",
          "name": "",
          "type": "bytes32"
        }
      ],
      "stateMutability": "view",
      "type": "function"
    },
    {
      "inputs": [
        {
          "internalType": "address",
          "name": "owner",
          "type": "address"
        },
        {
          "internalType": "address",
          "name": "spender",
          "type": "address"
        }
      ],
      "name": "allowance",
      "outputs": [
        {
          "internalType": "uint256",
          "name": "",
          "type": "uint256"
        }
      ],
      "stateMutability": "view",
      "type": "function"
    },
    {
      "inputs": [
        {
          "internalType": "address",
          "name": "spender",
          "type": "address"
        },
        {
          "internalType": "uint256",
          "name": "amount",
          "type": "uint256"
        }
      ],
      "name": "approve",
      "outputs": [
        {
          "internalType": "bool",
          "name": "",
          "type": "bool"
        }
      ],
      "stateMutability": "nonpayable",
      "type": "function"
    },
    {
      "inputs": [
        {
          "internalType": "address",
          "name": "account",
          "type": "address"
        }
      ],
      "name": "balanceOf",
      "outputs": [
        {
          "internalType": "uint256",
          "name": "",
          "type": "uint256"
        }
      ],
      "stateMutability": "view",
      "type": "function"
    },
    {
      "inputs": [
        {
          "internalType": "address",
          "name": "user",
          "type": "address"
        },
        {
          "internalType": "uint256",
          "name": "amount",
          "type": "uint256"
        }
      ],
      "name": "burn",
      "outputs": [],
      "stateMutability": "nonpayable",
      "type": "function"
    },
    {
      "inputs": [],
      "name": "core",
      "outputs": [
        {
          "internalType": "contract ICore",
          "name": "",
          "type": "address"
        }
      ],
      "stateMutability": "view",
      "type": "function"
    },
    {
      "inputs": [],
      "name": "decimals",
      "outputs": [
        {
          "internalType": "uint8",
          "name": "",
          "type": "uint8"
        }
      ],
      "stateMutability": "view",
      "type": "function"
    },
    {
      "inputs": [
        {
          "internalType": "address",
          "name": "spender",
          "type": "address"
        },
        {
          "internalType": "uint256",
          "name": "subtractedValue",
          "type": "uint256"
        }
      ],
      "name": "decreaseAllowance",
      "outputs": [
        {
          "internalType": "bool",
          "name": "",
          "type": "bool"
        }
      ],
      "stateMutability": "nonpayable",
      "type": "function"
    },
    {
      "inputs": [],
      "name": "deploymentChainId",
      "outputs": [
        {
          "internalType": "uint256",
          "name": "",
          "type": "uint256"
        }
      ],
      "stateMutability": "view",
      "type": "function"
    },
    {
      "inputs": [
        {
          "internalType": "address",
          "name": "spender",
          "type": "address"
        },
        {
          "internalType": "uint256",
          "name": "addedValue",
          "type": "uint256"
        }
      ],
      "name": "increaseAllowance",
      "outputs": [
        {
          "internalType": "bool",
          "name": "",
          "type": "bool"
        }
      ],
      "stateMutability": "nonpayable",
      "type": "function"
    },
    {
      "inputs": [
        {
          "internalType": "address",
          "name": "to",
          "type": "address"
        },
        {
          "internalType": "uint256",
          "name": "amount",
          "type": "uint256"
        }
      ],
      "name": "mint",
      "outputs": [],
      "stateMutability": "nonpayable",
      "type": "function"
    },
    {
      "inputs": [],
      "name": "name",
      "outputs": [
        {
          "internalType": "string",
          "name": "",
          "type": "string"
        }
      ],
      "stateMutability": "view",
      "type": "function"
    },
    {
      "inputs": [
        {
          "internalType": "address",
          "name": "",
          "type": "address"
        }
      ],
      "name": "nonces",
      "outputs": [
        {
          "internalType": "uint256",
          "name": "",
          "type": "uint256"
        }
      ],
      "stateMutability": "view",
      "type": "function"
    },
    {
      "inputs": [],
      "name": "oracle",
      "outputs": [
        {
          "internalType": "contract IOracle",
          "name": "",
          "type": "address"
        }
      ],
      "stateMutability": "view",
      "type": "function"
    },
    {
      "inputs": [],
      "name": "pause",
      "outputs": [],
      "stateMutability": "nonpayable",
      "type": "function"
    },
    {
      "inputs": [],
      "name": "paused",
      "outputs": [
        {
          "internalType": "bool",
          "name": "",
          "type": "bool"
        }
      ],
      "stateMutability": "view",
      "type": "function"
    },
    {
      "inputs": [
        {
          "internalType": "address",
          "name": "owner",
          "type": "address"
        },
        {
          "internalType": "address",
          "name": "spender",
          "type": "address"
        },
        {
          "internalType": "uint256",
          "name": "value",
          "type": "uint256"
        },
        {
          "internalType": "uint256",
          "name": "deadline",
          "type": "uint256"
        },
        {
          "internalType": "uint8",
          "name": "v",
          "type": "uint8"
        },
        {
          "internalType": "bytes32",
          "name": "r",
          "type": "bytes32"
        },
        {
          "internalType": "bytes32",
          "name": "s",
          "type": "bytes32"
        }
      ],
      "name": "permit",
      "outputs": [],
      "stateMutability": "nonpayable",
      "type": "function"
    },
    {
      "inputs": [],
      "name": "pricePerShare",
      "outputs": [
        {
          "internalType": "uint256",
          "name": "",
          "type": "uint256"
        }
      ],
      "stateMutability": "view",
      "type": "function"
    },
    {
      "inputs": [
        {
          "internalType": "address",
          "name": "core",
          "type": "address"
        }
      ],
      "name": "setCore",
      "outputs": [],
      "stateMutability": "nonpayable",
      "type": "function"
    },
    {
      "inputs": [],
      "name": "stkEth",
      "outputs": [
        {
          "internalType": "contract IStkEth",
          "name": "",
          "type": "address"
        }
      ],
      "stateMutability": "view",
      "type": "function"
    },
    {
      "inputs": [],
      "name": "symbol",
      "outputs": [
        {
          "internalType": "string",
          "name": "",
          "type": "string"
        }
      ],
      "stateMutability": "view",
      "type": "function"
    },
    {
      "inputs": [],
      "name": "totalSupply",
      "outputs": [
        {
          "internalType": "uint256",
          "name": "",
          "type": "uint256"
        }
      ],
      "stateMutability": "view",
      "type": "function"
    },
    {
      "inputs": [
        {
          "internalType": "address",
          "name": "recipient",
          "type": "address"
        },
        {
          "internalType": "uint256",
          "name": "amount",
          "type": "uint256"
        }
      ],
      "name": "transfer",
      "outputs": [
        {
          "internalType": "bool",
          "name": "",
          "type": "bool"
        }
      ],
      "stateMutability": "nonpayable",
      "type": "function"
    },
    {
      "inputs": [
        {
          "internalType": "address",
          "name": "sender",
          "type": "address"
        },
        {
          "internalType": "address",
          "name": "recipient",
          "type": "address"
        },
        {
          "internalType": "uint256",
          "name": "amount",
          "type": "uint256"
        }
      ],
      "name": "transferFrom",
      "outputs": [
        {
          "internalType": "bool",
          "name": "",
          "type": "bool"
        }
      ],
      "stateMutability": "nonpayable",
      "type": "function"
    },
    {
      "inputs": [],
      "name": "unpause",
      "outputs": [],
      "stateMutability": "nonpayable",
      "type": "function"
    }
  ],
  "bytecode": "0x60c06040523480156200001157600080fd5b50604051620037163803806200371683398181016040528101906200003791906200041b565b806040518060400160405280600a81526020017f5374616b656420457468000000000000000000000000000000000000000000008152506040518060400160405280600681526020017f73746b45746800000000000000000000000000000000000000000000000000008152508160039080519060200190620000bc92919062000354565b508060049080519060200190620000d592919062000354565b5050506000600560006101000a81548160ff021916908315150217905550600073ffffffffffffffffffffffffffffffffffffffff168173ffffffffffffffffffffffffffffffffffffffff16141562000166576040517f08c379a00000000000000000000000000000000000000000000000000000000081526004016200015d906200051b565b60405180910390fd5b80600560016101000a81548173ffffffffffffffffffffffffffffffffffffffff021916908373ffffffffffffffffffffffffffffffffffffffff1602179055507fb509f1ef29149e474db3a4776b2b658ad1b70710ceb0a5635a375a4c388eed8e81604051620001d89190620004a1565b60405180910390a15060004690508060a08181525050620001ff816200020e60201b60201c565b6080818152505050506200063e565b60007f8b73c3c69bb8fe3d512ecc4cf759cc79239f7b179b0ffacaa9a75d522b39400f62000241620002ba60201b60201c565b805190602001206040518060400160405280600181526020017f31000000000000000000000000000000000000000000000000000000000000008152508051906020012084306040516020016200029d959493929190620004be565b604051602081830303815290604052805190602001209050919050565b606060038054620002cb9062000596565b80601f0160208091040260200160405190810160405280929190818152602001828054620002f99062000596565b80156200034a5780601f106200031e576101008083540402835291602001916200034a565b820191906000526020600020905b8154815290600101906020018083116200032c57829003601f168201915b5050505050905090565b828054620003629062000596565b90600052602060002090601f016020900481019282620003865760008555620003d2565b82601f10620003a157805160ff1916838001178555620003d2565b82800160010185558215620003d2579182015b82811115620003d1578251825591602001919060010190620003b4565b5b509050620003e19190620003e5565b5090565b5b8082111562000400576000816000905550600101620003e6565b5090565b600081519050620004158162000624565b92915050565b6000602082840312156200042e57600080fd5b60006200043e8482850162000404565b91505092915050565b62000452816200054e565b82525050565b620004638162000562565b82525050565b6000620004786015836200053d565b91506200048582620005fb565b602082019050919050565b6200049b816200058c565b82525050565b6000602082019050620004b8600083018462000447565b92915050565b600060a082019050620004d5600083018862000458565b620004e4602083018762000458565b620004f3604083018662000458565b62000502606083018562000490565b62000511608083018462000447565b9695505050505050565b60006020820190508181036000830152620005368162000469565b9050919050565b600082825260208201905092915050565b60006200055b826200056c565b9050919050565b6000819050919050565b600073ffffffffffffffffffffffffffffffffffffffff82169050919050565b6000819050919050565b60006002820490506001821680620005af57607f821691505b60208210811415620005c657620005c5620005cc565b5b50919050565b7f4e487b7100000000000000000000000000000000000000000000000000000000600052602260045260246000fd5b7f436f72655265663a205a65726f20616464726573730000000000000000000000600082015250565b6200062f816200054e565b81146200063b57600080fd5b50565b60805160a0516130ab6200066b600039600081816106e901526111d10152600061071e01526130ab6000f3fe608060405234801561001057600080fd5b506004361061018e5760003560e01c80637dc0d1d0116100de5780639dc29fac11610097578063cd0d009611610071578063cd0d009614610477578063d505accf14610495578063dd62ed3e146104b1578063f2f4eb26146104e15761018e565b80639dc29fac146103fb578063a457c2d714610417578063a9059cbb146104475761018e565b80637dc0d1d01461034b5780637ecebe001461036957806380009630146103995780638456cb59146103b557806395d89b41146103bf57806399530b06146103dd5761018e565b80633644e5151161014b57806340c10f191161012557806340c10f19146102c35780635c975abb146102df57806370a08231146102fd5780637cd854851461032d5761018e565b80633644e5151461026b57806339509351146102895780633f4ba83a146102b95761018e565b806306fdde0314610193578063095ea7b3146101b157806318160ddd146101e157806323b872dd146101ff57806330adf81f1461022f578063313ce5671461024d575b600080fd5b61019b6104ff565b6040516101a89190612660565b60405180910390f35b6101cb60048036038101906101c69190612070565b610591565b6040516101d891906124e0565b60405180910390f35b6101e96105af565b6040516101f691906128a2565b60405180910390f35b61021960048036038101906102149190611f83565b6105b9565b60405161022691906124e0565b60405180910390f35b6102376106b1565b60405161024491906124fb565b60405180910390f35b6102556106d8565b60405161026291906128bd565b60405180910390f35b6102736106e1565b60405161028091906124fb565b60405180910390f35b6102a3600480360381019061029e9190612070565b610744565b6040516102b091906124e0565b60405180910390f35b6102c16107f0565b005b6102dd60048036038101906102d89190612070565b6108e4565b005b6102e76109dc565b6040516102f491906124e0565b60405180910390f35b61031760048036038101906103129190611ef5565b6109f3565b60405161032491906128a2565b60405180910390f35b610335610a3b565b6040516103429190612645565b60405180910390f35b610353610ae2565b604051610360919061262a565b60405180910390f35b610383600480360381019061037e9190611ef5565b610b89565b60405161039091906128a2565b60405180910390f35b6103b360048036038101906103ae9190611ef5565b610ba1565b005b6103bd610d06565b005b6103c7610dfa565b6040516103d49190612660565b60405180910390f35b6103e5610e8c565b6040516103f291906128a2565b60405180910390f35b61041560048036038101906104109190612070565b610f95565b005b610431600480360381019061042c9190612070565b6110c6565b60405161043e91906124e0565b60405180910390f35b610461600480360381019061045c9190612070565b6111b1565b60405161046e91906124e0565b60405180910390f35b61047f6111cf565b60405161048c91906128a2565b60405180910390f35b6104af60048036038101906104aa9190611fd2565b6111f3565b005b6104cb60048036038101906104c69190611f47565b611420565b6040516104d891906128a2565b60405180910390f35b6104e96114a7565b6040516104f6919061260f565b60405180910390f35b60606003805461050e90612a99565b80601f016020809104026020016040519081016040528092919081815260200182805461053a90612a99565b80156105875780601f1061055c57610100808354040283529160200191610587565b820191906000526020600020905b81548152906001019060200180831161056a57829003601f168201915b5050505050905090565b60006105a561059e6114d1565b84846114d9565b6001905092915050565b6000600254905090565b60006105c68484846116a4565b6000600160008673ffffffffffffffffffffffffffffffffffffffff1673ffffffffffffffffffffffffffffffffffffffff16815260200190815260200160002060006106116114d1565b73ffffffffffffffffffffffffffffffffffffffff1673ffffffffffffffffffffffffffffffffffffffff16815260200190815260200160002054905082811015610691576040517f08c379a0000000000000000000000000000000000000000000000000000000008152600401610688906127c2565b60405180910390fd5b6106a58561069d6114d1565b8584036114d9565b60019150509392505050565b7f6e71edae12b1b97f4d1f60370fef10105fa2faae0126114a169c64845d6126c960001b81565b60006012905090565b6000804690507f0000000000000000000000000000000000000000000000000000000000000000811461071c5761071781611925565b61073e565b7f00000000000000000000000000000000000000000000000000000000000000005b91505090565b60006107e66107516114d1565b84846001600061075f6114d1565b73ffffffffffffffffffffffffffffffffffffffff1673ffffffffffffffffffffffffffffffffffffffff16815260200190815260200160002060008873ffffffffffffffffffffffffffffffffffffffff1673ffffffffffffffffffffffffffffffffffffffff168152602001908152602001600020546107e191906128ff565b6114d9565b6001905092915050565b600560019054906101000a900473ffffffffffffffffffffffffffffffffffffffff1673ffffffffffffffffffffffffffffffffffffffff1663e43581b8336040518263ffffffff1660e01b815260040161084b919061249c565b60206040518083038186803b15801561086357600080fd5b505afa158015610877573d6000803e3d6000fd5b505050506040513d601f19601f8201168201806040525081019061089b91906120ac565b6108da576040517f08c379a00000000000000000000000000000000000000000000000000000000081526004016108d190612842565b60405180910390fd5b6108e26119c7565b565b600560019054906101000a900473ffffffffffffffffffffffffffffffffffffffff1673ffffffffffffffffffffffffffffffffffffffff1663aa271e1a336040518263ffffffff1660e01b815260040161093f919061249c565b60206040518083038186803b15801561095757600080fd5b505afa15801561096b573d6000803e3d6000fd5b505050506040513d601f19601f8201168201806040525081019061098f91906120ac565b6109ce576040517f08c379a00000000000000000000000000000000000000000000000000000000081526004016109c590612702565b60405180910390fd5b6109d88282611a69565b5050565b6000600560009054906101000a900460ff16905090565b60008060008373ffffffffffffffffffffffffffffffffffffffff1673ffffffffffffffffffffffffffffffffffffffff168152602001908152602001600020549050919050565b6000600560019054906101000a900473ffffffffffffffffffffffffffffffffffffffff1673ffffffffffffffffffffffffffffffffffffffff16637cd854856040518163ffffffff1660e01b815260040160206040518083038186803b158015610aa557600080fd5b505afa158015610ab9573d6000803e3d6000fd5b505050506040513d601f19601f82011682018060405250810190610add91906120d5565b905090565b6000600560019054906101000a900473ffffffffffffffffffffffffffffffffffffffff1673ffffffffffffffffffffffffffffffffffffffff16637dc0d1d06040518163ffffffff1660e01b815260040160206040518083038186803b158015610b4c57600080fd5b505afa158015610b60573d6000803e3d6000fd5b505050506040513d601f19601f82011682018060405250810190610b849190611f1e565b905090565b60066020528060005260406000206000915090505481565b600560019054906101000a900473ffffffffffffffffffffffffffffffffffffffff1673ffffffffffffffffffffffffffffffffffffffff1663e43581b8336040518263ffffffff1660e01b8152600401610bfc919061249c565b60206040518083038186803b158015610c1457600080fd5b505afa158015610c28573d6000803e3d6000fd5b505050506040513d601f19601f82011682018060405250810190610c4c91906120ac565b610c8b576040517f08c379a0000000000000000000000000000000000000000000000000000000008152600401610c8290612842565b60405180910390fd5b80600560016101000a81548173ffffffffffffffffffffffffffffffffffffffff021916908373ffffffffffffffffffffffffffffffffffffffff1602179055507fb509f1ef29149e474db3a4776b2b658ad1b70710ceb0a5635a375a4c388eed8e81604051610cfb919061249c565b60405180910390a150565b600560019054906101000a900473ffffffffffffffffffffffffffffffffffffffff1673ffffffffffffffffffffffffffffffffffffffff1663e43581b8336040518263ffffffff1660e01b8152600401610d61919061249c565b60206040518083038186803b158015610d7957600080fd5b505afa158015610d8d573d6000803e3d6000fd5b505050506040513d601f19601f82011682018060405250810190610db191906120ac565b610df0576040517f08c379a0000000000000000000000000000000000000000000000000000000008152600401610de790612842565b60405180910390fd5b610df8611bc9565b565b606060048054610e0990612a99565b80601f0160208091040260200160405190810160405280929190818152602001828054610e3590612a99565b8015610e825780601f10610e5757610100808354040283529160200191610e82565b820191906000526020600020905b815481529060010190602001808311610e6557829003601f168201915b5050505050905090565b6000610e966114a7565b73ffffffffffffffffffffffffffffffffffffffff16637dc0d1d06040518163ffffffff1660e01b815260040160206040518083038186803b158015610edb57600080fd5b505afa158015610eef573d6000803e3d6000fd5b505050506040513d601f19601f82011682018060405250810190610f139190611f1e565b73ffffffffffffffffffffffffffffffffffffffff166399530b066040518163ffffffff1660e01b815260040160206040518083038186803b158015610f5857600080fd5b505afa158015610f6c573d6000803e3d6000fd5b505050506040513d601f19601f82011682018060405250810190610f9091906120fe565b905090565b600560019054906101000a900473ffffffffffffffffffffffffffffffffffffffff1673ffffffffffffffffffffffffffffffffffffffff16634334614a336040518263ffffffff1660e01b8152600401610ff0919061249c565b60206040518083038186803b15801561100857600080fd5b505afa15801561101c573d6000803e3d6000fd5b505050506040513d601f19601f8201168201806040525081019061104091906120ac565b61107f576040517f08c379a000000000000000000000000000000000000000000000000000000000815260040161107690612762565b60405180910390fd5b6110898282611c6c565b7fd1df306c742159c188c29d2c167874a39b84fd0f96f794ad7ea53295680ec1c582826040516110ba9291906124b7565b60405180910390a15050565b600080600160006110d56114d1565b73ffffffffffffffffffffffffffffffffffffffff1673ffffffffffffffffffffffffffffffffffffffff16815260200190815260200160002060008573ffffffffffffffffffffffffffffffffffffffff1673ffffffffffffffffffffffffffffffffffffffff16815260200190815260200160002054905082811015611192576040517f08c379a000000000000000000000000000000000000000000000000000000000815260040161118990612862565b60405180910390fd5b6111a661119d6114d1565b858584036114d9565b600191505092915050565b60006111c56111be6114d1565b84846116a4565b6001905092915050565b7f000000000000000000000000000000000000000000000000000000000000000081565b42841015611236576040517f08c379a000000000000000000000000000000000000000000000000000000000815260040161122d90612782565b60405180910390fd5b60006112406106e1565b7f6e71edae12b1b97f4d1f60370fef10105fa2faae0126114a169c64845d6126c960001b898989600660008e73ffffffffffffffffffffffffffffffffffffffff1673ffffffffffffffffffffffffffffffffffffffff16815260200190815260200160002060008154809291906112b790612acb565b919050558a6040516020016112d196959493929190612516565b604051602081830303815290604052805190602001206040516020016112f8929190612465565b60405160208183030381529060405280519060200120905060006001828686866040516000815260200160405260405161133594939291906125ca565b6020604051602081039080840390855afa158015611357573d6000803e3d6000fd5b505050602060405103519050600073ffffffffffffffffffffffffffffffffffffffff168173ffffffffffffffffffffffffffffffffffffffff16141580156113cb57508873ffffffffffffffffffffffffffffffffffffffff168173ffffffffffffffffffffffffffffffffffffffff16145b61140a576040517f08c379a0000000000000000000000000000000000000000000000000000000008152600401611401906126c2565b60405180910390fd5b6114158989896114d9565b505050505050505050565b6000600160008473ffffffffffffffffffffffffffffffffffffffff1673ffffffffffffffffffffffffffffffffffffffff16815260200190815260200160002060008373ffffffffffffffffffffffffffffffffffffffff1673ffffffffffffffffffffffffffffffffffffffff16815260200190815260200160002054905092915050565b6000600560019054906101000a900473ffffffffffffffffffffffffffffffffffffffff16905090565b600033905090565b600073ffffffffffffffffffffffffffffffffffffffff168373ffffffffffffffffffffffffffffffffffffffff161415611549576040517f08c379a000000000000000000000000000000000000000000000000000000000815260040161154090612822565b60405180910390fd5b600073ffffffffffffffffffffffffffffffffffffffff168273ffffffffffffffffffffffffffffffffffffffff1614156115b9576040517f08c379a00000000000000000000000000000000000000000000000000000000081526004016115b090612722565b60405180910390fd5b80600160008573ffffffffffffffffffffffffffffffffffffffff1673ffffffffffffffffffffffffffffffffffffffff16815260200190815260200160002060008473ffffffffffffffffffffffffffffffffffffffff1673ffffffffffffffffffffffffffffffffffffffff168152602001908152602001600020819055508173ffffffffffffffffffffffffffffffffffffffff168373ffffffffffffffffffffffffffffffffffffffff167f8c5be1e5ebec7d5bd14f71427d1e84f3dd0314c0f7b2291e5b200ac8c7c3b9258360405161169791906128a2565b60405180910390a3505050565b600073ffffffffffffffffffffffffffffffffffffffff168373ffffffffffffffffffffffffffffffffffffffff161415611714576040517f08c379a000000000000000000000000000000000000000000000000000000000815260040161170b90612802565b60405180910390fd5b600073ffffffffffffffffffffffffffffffffffffffff168273ffffffffffffffffffffffffffffffffffffffff161415611784576040517f08c379a000000000000000000000000000000000000000000000000000000000815260040161177b90612682565b60405180910390fd5b61178f838383611e43565b60008060008573ffffffffffffffffffffffffffffffffffffffff1673ffffffffffffffffffffffffffffffffffffffff16815260200190815260200160002054905081811015611815576040517f08c379a000000000000000000000000000000000000000000000000000000000815260040161180c90612742565b60405180910390fd5b8181036000808673ffffffffffffffffffffffffffffffffffffffff1673ffffffffffffffffffffffffffffffffffffffff16815260200190815260200160002081905550816000808573ffffffffffffffffffffffffffffffffffffffff1673ffffffffffffffffffffffffffffffffffffffff16815260200190815260200160002060008282546118a891906128ff565b925050819055508273ffffffffffffffffffffffffffffffffffffffff168473ffffffffffffffffffffffffffffffffffffffff167fddf252ad1be2c89b69c2b068fc378daa952ba7f163c4a11628f55a4df523b3ef8460405161190c91906128a2565b60405180910390a361191f848484611e48565b50505050565b60007f8b73c3c69bb8fe3d512ecc4cf759cc79239f7b179b0ffacaa9a75d522b39400f6119506104ff565b805190602001206040518060400160405280600181526020017f31000000000000000000000000000000000000000000000000000000000000008152508051906020012084306040516020016119aa959493929190612577565b604051602081830303815290604052805190602001209050919050565b6119cf6109dc565b611a0e576040517f08c379a0000000000000000000000000000000000000000000000000000000008152600401611a05906126a2565b60405180910390fd5b6000600560006101000a81548160ff0219169083151502179055507f5db9ee0a495bf2e6ff9c91a7834c1ba4fdd244a5e8aa4e537bd38aeae4b073aa611a526114d1565b604051611a5f919061249c565b60405180910390a1565b600073ffffffffffffffffffffffffffffffffffffffff168273ffffffffffffffffffffffffffffffffffffffff161415611ad9576040517f08c379a0000000000000000000000000000000000000000000000000000000008152600401611ad090612882565b60405180910390fd5b611ae560008383611e43565b8060026000828254611af791906128ff565b92505081905550806000808473ffffffffffffffffffffffffffffffffffffffff1673ffffffffffffffffffffffffffffffffffffffff1681526020019081526020016000206000828254611b4c91906128ff565b925050819055508173ffffffffffffffffffffffffffffffffffffffff16600073ffffffffffffffffffffffffffffffffffffffff167fddf252ad1be2c89b69c2b068fc378daa952ba7f163c4a11628f55a4df523b3ef83604051611bb191906128a2565b60405180910390a3611bc560008383611e48565b5050565b611bd16109dc565b15611c11576040517f08c379a0000000000000000000000000000000000000000000000000000000008152600401611c08906127a2565b60405180910390fd5b6001600560006101000a81548160ff0219169083151502179055507f62e78cea01bee320cd4e420270b5ea74000d11b0c9f74754ebdbfc544b05a258611c556114d1565b604051611c62919061249c565b60405180910390a1565b600073ffffffffffffffffffffffffffffffffffffffff168273ffffffffffffffffffffffffffffffffffffffff161415611cdc576040517f08c379a0000000000000000000000000000000000000000000000000000000008152600401611cd3906127e2565b60405180910390fd5b611ce882600083611e43565b60008060008473ffffffffffffffffffffffffffffffffffffffff1673ffffffffffffffffffffffffffffffffffffffff16815260200190815260200160002054905081811015611d6e576040517f08c379a0000000000000000000000000000000000000000000000000000000008152600401611d65906126e2565b60405180910390fd5b8181036000808573ffffffffffffffffffffffffffffffffffffffff1673ffffffffffffffffffffffffffffffffffffffff168152602001908152602001600020819055508160026000828254611dc59190612955565b92505081905550600073ffffffffffffffffffffffffffffffffffffffff168373ffffffffffffffffffffffffffffffffffffffff167fddf252ad1be2c89b69c2b068fc378daa952ba7f163c4a11628f55a4df523b3ef84604051611e2a91906128a2565b60405180910390a3611e3e83600084611e48565b505050565b505050565b505050565b600081359050611e5c81612feb565b92915050565b600081519050611e7181612feb565b92915050565b600081519050611e8681613002565b92915050565b600081359050611e9b81613019565b92915050565b600081519050611eb081613030565b92915050565b600081359050611ec581613047565b92915050565b600081519050611eda81613047565b92915050565b600081359050611eef8161305e565b92915050565b600060208284031215611f0757600080fd5b6000611f1584828501611e4d565b91505092915050565b600060208284031215611f3057600080fd5b6000611f3e84828501611e62565b91505092915050565b60008060408385031215611f5a57600080fd5b6000611f6885828601611e4d565b9250506020611f7985828601611e4d565b9150509250929050565b600080600060608486031215611f9857600080fd5b6000611fa686828701611e4d565b9350506020611fb786828701611e4d565b9250506040611fc886828701611eb6565b9150509250925092565b600080600080600080600060e0888a031215611fed57600080fd5b6000611ffb8a828b01611e4d565b975050602061200c8a828b01611e4d565b965050604061201d8a828b01611eb6565b955050606061202e8a828b01611eb6565b945050608061203f8a828b01611ee0565b93505060a06120508a828b01611e8c565b92505060c06120618a828b01611e8c565b91505092959891949750929550565b6000806040838503121561208357600080fd5b600061209185828601611e4d565b92505060206120a285828601611eb6565b9150509250929050565b6000602082840312156120be57600080fd5b60006120cc84828501611e77565b91505092915050565b6000602082840312156120e757600080fd5b60006120f584828501611ea1565b91505092915050565b60006020828403121561211057600080fd5b600061211e84828501611ecb565b91505092915050565b61213081612989565b82525050565b61213f8161299b565b82525050565b61214e816129a7565b82525050565b612165612160826129a7565b612b14565b82525050565b612174816129fa565b82525050565b61218381612a1e565b82525050565b61219281612a42565b82525050565b60006121a3826128d8565b6121ad81856128e3565b93506121bd818560208601612a66565b6121c681612b7c565b840191505092915050565b60006121de6023836128e3565b91506121e982612b8d565b604082019050919050565b60006122016014836128e3565b915061220c82612bdc565b602082019050919050565b60006122246019836128e3565b915061222f82612c05565b602082019050919050565b60006122476022836128e3565b915061225282612c2e565b604082019050919050565b600061226a601f836128e3565b915061227582612c7d565b602082019050919050565b600061228d6022836128e3565b915061229882612ca6565b604082019050919050565b60006122b06002836128f4565b91506122bb82612cf5565b600282019050919050565b60006122d36026836128e3565b91506122de82612d1e565b604082019050919050565b60006122f6601f836128e3565b915061230182612d6d565b602082019050919050565b6000612319600f836128e3565b915061232482612d96565b602082019050919050565b600061233c6010836128e3565b915061234782612dbf565b602082019050919050565b600061235f6028836128e3565b915061236a82612de8565b604082019050919050565b60006123826021836128e3565b915061238d82612e37565b604082019050919050565b60006123a56025836128e3565b91506123b082612e86565b604082019050919050565b60006123c86024836128e3565b91506123d382612ed5565b604082019050919050565b60006123eb6021836128e3565b91506123f682612f24565b604082019050919050565b600061240e6025836128e3565b915061241982612f73565b604082019050919050565b6000612431601f836128e3565b915061243c82612fc2565b602082019050919050565b612450816129e3565b82525050565b61245f816129ed565b82525050565b6000612470826122a3565b915061247c8285612154565b60208201915061248c8284612154565b6020820191508190509392505050565b60006020820190506124b16000830184612127565b92915050565b60006040820190506124cc6000830185612127565b6124d96020830184612447565b9392505050565b60006020820190506124f56000830184612136565b92915050565b60006020820190506125106000830184612145565b92915050565b600060c08201905061252b6000830189612145565b6125386020830188612127565b6125456040830187612127565b6125526060830186612447565b61255f6080830185612447565b61256c60a0830184612447565b979650505050505050565b600060a08201905061258c6000830188612145565b6125996020830187612145565b6125a66040830186612145565b6125b36060830185612447565b6125c06080830184612127565b9695505050505050565b60006080820190506125df6000830187612145565b6125ec6020830186612456565b6125f96040830185612145565b6126066060830184612145565b95945050505050565b6000602082019050612624600083018461216b565b92915050565b600060208201905061263f600083018461217a565b92915050565b600060208201905061265a6000830184612189565b92915050565b6000602082019050818103600083015261267a8184612198565b905092915050565b6000602082019050818103600083015261269b816121d1565b9050919050565b600060208201905081810360008301526126bb816121f4565b9050919050565b600060208201905081810360008301526126db81612217565b9050919050565b600060208201905081810360008301526126fb8161223a565b9050919050565b6000602082019050818103600083015261271b8161225d565b9050919050565b6000602082019050818103600083015261273b81612280565b9050919050565b6000602082019050818103600083015261275b816122c6565b9050919050565b6000602082019050818103600083015261277b816122e9565b9050919050565b6000602082019050818103600083015261279b8161230c565b9050919050565b600060208201905081810360008301526127bb8161232f565b9050919050565b600060208201905081810360008301526127db81612352565b9050919050565b600060208201905081810360008301526127fb81612375565b9050919050565b6000602082019050818103600083015261281b81612398565b9050919050565b6000602082019050818103600083015261283b816123bb565b9050919050565b6000602082019050818103600083015261285b816123de565b9050919050565b6000602082019050818103600083015261287b81612401565b9050919050565b6000602082019050818103600083015261289b81612424565b9050919050565b60006020820190506128b76000830184612447565b92915050565b60006020820190506128d26000830184612456565b92915050565b600081519050919050565b600082825260208201905092915050565b600081905092915050565b600061290a826129e3565b9150612915836129e3565b9250827fffffffffffffffffffffffffffffffffffffffffffffffffffffffffffffffff0382111561294a57612949612b1e565b5b828201905092915050565b6000612960826129e3565b915061296b836129e3565b92508282101561297e5761297d612b1e565b5b828203905092915050565b6000612994826129c3565b9050919050565b60008115159050919050565b6000819050919050565b60006129bc82612989565b9050919050565b600073ffffffffffffffffffffffffffffffffffffffff82169050919050565b6000819050919050565b600060ff82169050919050565b6000612a0582612a0c565b9050919050565b6000612a17826129c3565b9050919050565b6000612a2982612a30565b9050919050565b6000612a3b826129c3565b9050919050565b6000612a4d82612a54565b9050919050565b6000612a5f826129c3565b9050919050565b60005b83811015612a84578082015181840152602081019050612a69565b83811115612a93576000848401525b50505050565b60006002820490506001821680612ab157607f821691505b60208210811415612ac557612ac4612b4d565b5b50919050565b6000612ad6826129e3565b91507fffffffffffffffffffffffffffffffffffffffffffffffffffffffffffffffff821415612b0957612b08612b1e565b5b600182019050919050565b6000819050919050565b7f4e487b7100000000000000000000000000000000000000000000000000000000600052601160045260246000fd5b7f4e487b7100000000000000000000000000000000000000000000000000000000600052602260045260246000fd5b6000601f19601f8301169050919050565b7f45524332303a207472616e7366657220746f20746865207a65726f206164647260008201527f6573730000000000000000000000000000000000000000000000000000000000602082015250565b7f5061757361626c653a206e6f7420706175736564000000000000000000000000600082015250565b7f73746b4574683a20494e56414c49445f5349474e415455524500000000000000600082015250565b7f45524332303a206275726e20616d6f756e7420657863656564732062616c616e60008201527f6365000000000000000000000000000000000000000000000000000000000000602082015250565b7f436f72655265663a2043616c6c6572206973206e6f742061206d696e74657200600082015250565b7f45524332303a20617070726f766520746f20746865207a65726f20616464726560008201527f7373000000000000000000000000000000000000000000000000000000000000602082015250565b7f1901000000000000000000000000000000000000000000000000000000000000600082015250565b7f45524332303a207472616e7366657220616d6f756e742065786365656473206260008201527f616c616e63650000000000000000000000000000000000000000000000000000602082015250565b7f436f72655265663a2043616c6c6572206973206e6f742061206275726e657200600082015250565b7f73746b4574683a20455850495245440000000000000000000000000000000000600082015250565b7f5061757361626c653a2070617573656400000000000000000000000000000000600082015250565b7f45524332303a207472616e7366657220616d6f756e742065786365656473206160008201527f6c6c6f77616e6365000000000000000000000000000000000000000000000000602082015250565b7f45524332303a206275726e2066726f6d20746865207a65726f2061646472657360008201527f7300000000000000000000000000000000000000000000000000000000000000602082015250565b7f45524332303a207472616e736665722066726f6d20746865207a65726f20616460008201527f6472657373000000000000000000000000000000000000000000000000000000602082015250565b7f45524332303a20617070726f76652066726f6d20746865207a65726f2061646460008201527f7265737300000000000000000000000000000000000000000000000000000000602082015250565b7f436f72655265663a2043616c6c6572206973206e6f74206120676f7665726e6f60008201527f7200000000000000000000000000000000000000000000000000000000000000602082015250565b7f45524332303a2064656372656173656420616c6c6f77616e63652062656c6f7760008201527f207a65726f000000000000000000000000000000000000000000000000000000602082015250565b7f45524332303a206d696e7420746f20746865207a65726f206164647265737300600082015250565b612ff481612989565b8114612fff57600080fd5b50565b61300b8161299b565b811461301657600080fd5b50565b613022816129a7565b811461302d57600080fd5b50565b613039816129b1565b811461304457600080fd5b50565b613050816129e3565b811461305b57600080fd5b50565b613067816129ed565b811461307257600080fd5b5056fea264697066735822122077fb8b58f01a18fe9ff16323cdc0fa3270ab1bcfd3bf64bf81daea9ef6b930c864736f6c63430008040033",
  "linkReferences": {},
  "deployedLinkReferences": {}
}